:02000004080AE8
:1000000000000A08443B0A0800000600060005013B
:080010000402E80500000000F5
:04001800C8360A08D4
:10001C0009480A4908B5884205D0094A824202D0EB
:10002C00121A03F0D9FA0748074A0021121A03F0F2
:10003C00DEFA064808BD00BF000000209C3A0A0802
:10004C008000002080000020780700207807002026
:10005C0070B501F0F7FA074B074C1E46E41AA408DA
:10006C000025A54204D056F8253098470135F8E70D
:10007C0070BD00BF5C3A0A08903A0A0800F0CEB88E
:10008C0008B500F08BFABDE8084001F09DBA00F00D
:10009C00E9BE00F0EFBE0078B0FA80F0400970477E
:1000AC00012303707047106870470000F7B52E4CA1
:1000BC0000221146206800F04DFC2C49206801F00C
:1000CC001DF901220021206800F044FC2849206819
:1000DC0001F014F941F2883001F014FA254D05F1C4
:1000EC00F8070F2002F009F902F056FDE5E90201CC
:1000FC00206800F01BFC00221146206800F02AFC4E
:10010C001D49206801F0FAF801220021206800F056
:10011C0021FCD5E900010022184B02F0A3FD0022BE
:10012C00174B02F09FFD02230246009320680B46FA
:10013C0001F0C4F91349206801F0E0F84FF47A702B
:10014C0001F0E0F9BD42084ECBD1306800F0EEFB77
:10015C000D49306801F0D2F842F2107003B0BDE8DE
:10016C00F04001F0CFB900BFF0010020DC360A08E6
:10017C00E5360A08D8000020F1360A080000303FA6
:10018C0000002E40FD360A0802370A082DE9F0411E
:10019C008846A0F1080500F1E80400260027F5E9DF
:1001AC0002233046394602F0ABFBA54206460F4609
:1001BC00F5D1404602F0F0FC02460B46304639467B
:1001CC0002F07AFEBDE8F0812DE9F84F9946CB009C
:1001DC00083300AFADEB030D0C4690466E46A0F114
:1001EC00080BADF1080A0025A5420DDAFBE9020166
:1001FC0042464B4602F082FB02460B4602F032FDB1
:10020C000135EAE90201EFE721463046FFF7BEFF70
:10021C0002F04EFABD46BDE8F88F000030B585B04F
:10022C0001F000FE4FF4E13101F0E2FD00210F205E
:10023C0002F052F800240C230194ADF80430234B47
:10024C0004220293224901AB2248039400F0DAFD08
:10025C00234609222049214800F0D4FD204A214997
:10026C00214801F079FA214A21491F4801F074FA1A
:10027C001020FFF70CFF054620B1022310223F216E
:10028C0000F0ECFA1B4C2846256000F0F9FB2068C6
:10029C0000F00EFB206800F049FBFFF707FF1E2162
:1002AC001548FFF773FF02460B460B491248C1E98C
:1002BC0000231E21FFF788FF104BC3E9000101F05A
:1002CC00B1FD0F4901F01AF805B030BDB3000A08B2
:1002DC00D401002008370A089000002012370A08C1
:1002EC001B370A0879040A0839170A0826370A083E
:1002FC00D1040A08F0010020E0000020E8010020F1
:10030C0032370A0808B500F0FFFB074B984209D9B1
:10031C0000F088FD10B1002000F094FDBDE808400D
:10032C0000F0F2BB08BD00BF80EE360038B50D4CB6
:10033C000D49204600F09DFF014690B90B4D01225E
:10034C00286800F007FB0A49286800F0D7FF2168ED
:10035C00286800F0D3FF2146BDE83840024800F081
:10036C0016BF38BDB800002098000020F001002016
:10037C0048370A0838B5046805467CB16368013B08
:10038C0063605BB9236820469B689847A368013B70
:10039C00A3601BB923682046DB689847284638BD04
:1003AC002DE9FF4106460F46254B264C186802F0F6
:1003BC00F3FB32463B4602F0DBFE94F80080224D04
:1003CC0028B10123237000F09FFB286012E000F09D
:1003DC009BFB2B68C01A1D4B1B68984229D21C4BE7
:1003EC00186802F0D9FB02460B463046394602F03B
:1003FC00BFFEF0B9227890451FD0164B1B788DF8B4
:10040C0000303C234AB11449002202A801F0B4FA8E
:10041C0003A8FFF7AFFF114907E0114902A801F04B
:10042C00ABFA03A8FFF7A6FF0E490F4800F0D1FE68
:10043C0003E0002323702B60DCE704B0BDE8F081FF
:10044C0008000020C90000208C00002004000020BF
:10045C0000000020C800002056370A0861370A083F
:10046C0065370A0871370A08B80000201FB50F4B12
:10047C00186802F091FB0E4BD3E9002302F082FEC8
:10048C0080B10C4B0C491B7800228DF8003002A86F
:10049C003C2301F071FA03A8FFF76CFF07490848E9
:1004AC0000F097FE012005B05DF804FB0000002071
:1004BC0090000020C800002056370A0861370A084F
:1004CC00B80000201FB50B4B00221B780A498DF891
:1004DC00003002A83C2301F04FFA03A8FFF74AFFB3
:1004EC000649074800F075FE064B0020187005B051
:1004FC005DF804FBC800002065370A0871370A084C
:10050C00B8000020D001002030B51B4985B01B4835
:10051C0000F0BCFE1A4D38B11A49184800F0A9FE7B
:10052C0010B9194C2378E3B100F0EEFA2B6898421D
:10053C0009D8164B186802F02FFB154BD3E9002392
:10054C0002F00CFEB0B1104B1B789BB11149684600
:10055C0000F0EDFD6846FFF7B5FF684600F0A0FD22
:10056C0008E000F0D1FA0C4B1B68184401232860FA
:10057C002370D9E705B030BD71370A089800002008
:10058C0084000020B8000020D001002000000020D2
:10059C009000002068380A08100000202DE9F04F68
:1005AC000F2087B001F0A9FE6A4C0A220146206098
:1005BC0002A800F01FFE02A9674800F002FE02A884
:1005CC0000F06EFD00F0A0FA644B1B68984205D257
:1005DC0000F09AFAB0F57A7F80F09280206802F0F1
:1005EC00DBFA04460D46DFF8B0A1DFF8B0B1DAE96A
:1005FC000067DBE90089304642464B46394602F03B
:10060C007DF922462B4602F09FFD002800F08180E8
:10061C000022534B4046494602F024FB32463B46EF
:10062C0002F06EF902460B462046294602F08CFD7C
:10063C0000286ED04B4B1E26013E73E90201C3E924
:10064C000201F9D1484F1E213846C7E90045FFF792
:10065C009DFD02460B4638461E21CAE90023FFF7D2
:10066C00B3FDDAE900230624404DCBE900010094E8
:10067C0002A800F0D2FD02A9284600F0A2FD02A8B3
:10068C0000F00EFDDBE90023009402A800F0C5FD8C
:10069C00374C02A9374800F094FD02A800F000FD89
:1006AC00206800F043F932463146206800F052F9D8
:1006BC00DAE900010022304B02F0D4FA00222F4B71
:1006CC0002F0D0FA0223009302460B46206800F099
:1006DC00F5FE2B49206800F011FE2A4B2A681B7886
:1006EC0029498DF8003002A83C2301F045F903A8F4
:1006FC00FFF740FEDAE90001FFF752FE00F004FAC2
:10070C00FFF714FEFFF700FFFFF7FCFD07B0BDE895
:10071C00F08F174C206800F009F900221146206870
:10072C0000F018F91949206800F0E8FD0122206852
:10073C00002100F00FF91649206800F0DFFD154B81
:10074C002068196800F0DAFD41F2883000F0DAFE1A
:10075C00D6E700BFF4010020D40100200C000020DB
:10076C0000000440D0010020E0000020A800002080
:10077C00F0010020CC0000200000303F00002E4093
:10078C00FD360A088800002075370A087A370A08EF
:10079C0048370A08B800002090000020E80100202B
:1007AC00F8B51F4B00221F4E1A701F4F1F4B012212
:1007BC001A701F4D1F4C00F067F93146384600F097
:1007CC00B6FC38461C4F2A46214601F005FE314640
:1007DC00384600F0ACFC3846184F2A46214601F04A
:1007EC00FBFD3146384600F0A2FC3846144F2A4631
:1007FC00214601F0F1FD1349384600F098FC3846CB
:10080C00114F2A46214601F0E7FD3146384600F0EB
:10081C008EFC2A4621463846BDE8F84001F0DCBD86
:10082C008800002068380A08D4010020C800002085
:10083C0080000020AD100A08A8000020CC00002089
:10084C00B800002071370A0898000020704710B5D6
:10085C000446102101F0CEFD204610BD70B5044EAB
:10086C00002545600660017242738373C57370BDC9
:10087C0090370A0838B504460D4601F087FD217AF9
:10088C0001F014FC022000F037F901F07FFDE17B50
:10089C00036829439B689847022000F02DF901F06A
:1008AC0075FD01F00BFCBDE83840022000F024B9C6
:1008BC000823C3730021FFF7DDBF38B505460C468E
:1008CC0041F00401FFF7D6FF012000F015F928468E
:1008DC0004F0FB01FFF7CEFFBDE83840322000F0FA
:1008EC000BB938B504460D46FFF7C4FF2946204620
:1008FC00BDE83840FFF7E1BF70B50D46144606461B
:10090C0021F00F011143FFF7ECFF44EA05113046CB
:10091C00BDE87040C9B2FFF7E4BF08B50122FFF78C
:10092C00EBFF002008BD0022FFF7E6BF08B5012150
:10093C00FFF7F9FFBDE808404FF4FA6000F0DCB8AF
:10094C0008B50221FFF7EFFFBDE808404FF4FA604D
:10095C0000F0D2B87FB5054614460E460C4B0DF18F
:10096C00100E0FCB0EE90F002B7B2846A3423CBF89
:10097C0003F1FF34E4B204AB03EB840454F8101C11
:10098C00314461F07F01C9B2FFF7CDFF04B070BDF7
:10099C00A0370A0808B5817A41F00402827241F04E
:1009AC000C01FFF7C0FF08BD10B5012A88BF417AC2
:1009BC00044684BF41F00801417202732BB1012A35
:1009CC0002BF437A43F004034372322000F09AFDD5
:1009DC00E17B2046FFF74EFF4FF47A7000F092FD5A
:1009EC0030212046FFF77DFF41F2941000F084F88F
:1009FC0030212046FFF775FF41F2941000F07CF88F
:100A0C0030212046FFF76DFF962000F075F8204648
:100A1C002021FFF766FF617A204641F02001FFF7A5
:100A2C0082FF0423A3722046FFF7B4FF2046FFF792
:100A3C007DFF02232046E3720621FFF774FF204658
:100A4C00BDE81040FFF77CBF10B5044601F09EFCDA
:100A5C000A4901F01DFB01F099FC012101F01CFB7E
:100A6C0001F094FC01F01CFB00236372A27B617B00
:100A7C002046BDE81040FFF797BF00BFA0860100DD
:100A8C00FFF7E2BF00F000B808B5024B1B681B680B
:100A9C00019308BDB001060808B5024B1B685B68E2
:100AAC00019308BDB001060808B5024B1B689B6892
:100ABC00019308BDB001060808B5024B1B681B6BFF
:100ACC00019308BDB001060808B5024B1B68DB6931
:100ADC00019308BDB401060808B5024B1B681B6ADC
:100AEC00019308BDB401060808B5024B1B685B688E
:100AFC00019308BD9C01060808B5024B1B68DB6816
:100B0C00019308BD9C01060808B5024B1B685B6984
:100B1C00019308BD9C01060808B5024B1B685B6C71
:100B2C00019308BDD001060808B5024B1B689B6CED
:100B3C00019308BDD001060808B5024B1B689B69E0
:100B4C00019308BDC401060808B5024B1B685B6A1B
:100B5C00019308BDC401060808B5024B1B689B6ACB
:100B6C00019308BDC401060808B5024B1B68DB6A7B
:100B7C00019308BDC401060808B5024B1B681B6B2A
:100B8C00019308BDC401060808B5024B1B685B6BDA
:100B9C00019308BDC401060808B5024B1B689B6B8A
:100BAC00019308BDC401060808B5024B1B681B6CF9
:100BBC00019308BDC401060808B5024B1B681B6CE9
:100BCC00019308BDAC01060808B5024B1B689B6C71
:100BDC00019308BDAC01060808B5024B1B68DB6C21
:100BEC00019308BDAC01060808B5024B1B689B6D50
:100BFC00019308BDAC01060808B5024B1B68DB6D00
:100C0C00019308BDAC01060808B5024B1B681B6EAE
:100C1C00019308BDAC01060808B5024B1B685B6E5E
:100C2C00019308BDAC01060808B5024B1B689B6E0E
:100C3C00019308BDAC01060808B5024B1B68DB6EBE
:100C4C00019308BDAC01060808B5024B1B681B6F6D
:100C5C00019308BDAC01060808B5024B1B685B6F1D
:100C6C00019308BDAC01060808B5034B1B68D3F80B
:100C7C008030019308BD0000AC01060808B5024B9A
:100C8C001B681B68019308BDD801060808B5024B08
:100C9C001B685B68019308BDD801060808B5024BB8
:100CAC001B681B69019308BDD801060808B5024BE7
:100CBC001B685B69019308BDD801060808B5024B97
:100CCC001B689B69019308BDD801060808B5024B47
:100CDC001B68DB69019308BDD801060808B5024BF7
:100CEC001B681B6A019308BDD801060808B5024BA6
:100CFC001B689B6C019308BDC001060808B5024B2C
:100D0C001B685B68019308BDA401060808B5024B7B
:100D1C001B685B69019308BDA401060808B5024B6A
:100D2C001B68DB6C019308BDA401060808B5024BD7
:100D3C001B685B6D019308BDA401060808B5034B45
:100D4C001B68D3F89030019308BD0000A40106087D
:100D5C0008B5034B1B68D3F89C30019308BD000009
:100D6C00A401060808B5024B1B685B68019308BD1B
:100D7C00C801060808B5024B1B689B68019308BDA7
:100D8C00C801060808B5024B1B68DB68019308BD57
:100D9C00C801060808B5024B1B681B69019308BD06
:100DAC00C801060808B5024B1B685B69019308BDB6
:100DBC00C801060808B5024B1B689B69019308BD66
:100DCC00C801060808B5024B1B68DB69019308BD16
:100DDC00C801060808B5024B1B681B6A019308BDC5
:100DEC00C801060808B5024B1B681B6B019308BDB4
:100DFC00C801060808B5024B1B685B6B019308BD64
:100E0C00C801060808B5024B1B681B68019308BD96
:100E1C00CC01060808B5024B1B685B68019308BD42
:100E2C00CC01060808B5024B1B685B69019308BD31
:100E3C00CC01060808B5024B1B681B6A019308BD60
:100E4C00CC01060808B5024B1B68DB6A019308BD90
:100E5C00CC01060808B5024B1B68DB6B019308BD7F
:100E6C00CC01060808B5024B1B681B68019308BD32
:100E7C00A001060808B5024B1B685B68019308BD0E
:100E8C00A001060808B5024B1B689B68019308BDBE
:100E9C00A001060808B5024B1B68DB6A019308BD6C
:100EAC00A001060808B5024B1B681B6B019308BD1B
:100EBC00A001060808B5024B1B68DB6B019308BD4B
:100ECC00A001060870B504460E46002540F8085FE0
:100EDC00FFF722FE30462670FFF7F6FD65602046D0
:100EEC0070BD0078FFF7F8BD10B50446006818B166
:100EFC00FFF7C0FF0023236010BD10B50446FFF7B9
:100F0C00F3FF204610BD00004FF6FF7310B5084CE0
:100F1C0000202060A080A07120816381FFF7EEFE8D
:100F2C002046BDE81040034A034901F055BA00BF02
:100F3C00F801002080000020070F0A0810B50446B5
:100F4C0002F0B3FB013823182046984206D20278EF
:100F5C00197800F8011B03F80129F6E710BD70B5EC
:100F6C000C46911E222920D82546294610B9234427
:100F7C0030220EE0B0FBF2F602FB1600C1B20928DB
:100F8C0005F8011B94BF3031573105F8011C304670
:100F9C00EBE7994202D201F8012BFAE70023204635
:100FAC000B70FFF7CBFF204670BD002070BD38B52D
:100FBC00031E0C4615460BDAB3F1004F4FF02D0211
:100FCC0014BF5842184601230A702A46194400E0FF
:100FDC000123FFF7C4FF204638BD00002DE9F14F77
:100FEC0080460D4617461E460022002340462946E1
:100FFC0002F0AAF820B12D23337005F1004501361B
:10100C00002301240A22D9B28F4202D9544301335E
:10101C00F9E7204601F0C0FD42462B4601F022FEC6
:10102C0082468B4602F02EF98046894601F0E4FD9B
:10103C0002460B465046594601F060FC0022174B05
:10104C0002F096F818B118F1010849F10009E517FA
:10105C0022462B464046494602F0FCF801230A2260
:10106C003146FFF77CFFAFB1304602F01EFB2E235A
:10107C0033540130064422462B464046494602F082
:10108C00E9F83B46104631460A2201B0BDE8F04F64
:10109C00FFF765BF01B0BDE8F08F00BF0000E03F77
:1010AC0010B504460068FFF7E5FE204610BD10B5EC
:1010BC000446006808B1FFF7DDFE00232360A3603F
:1010CC00636010BD38B504460D4600680131FFF76A
:1010DC00D9FE10B184E82100012038BD10B5036899
:1010EC00044613B143688B4207D22046FFF7EAFF50
:1010FC0020B1A3680BB922681370012010BD70B524
:10110C000E46114604461546FFF7E8FF18B920466F
:10111C00FFF7CDFF09E02A463146A560206802F0B2
:10112C005BFA2268A3680021D154204670BD38B503
:10113C000023044603604360836003730D4639B19A
:10114C00084602F0B2FA294602462046FFF7D7FFBE
:10115C00204638BD38B5054600680C4660B16A6853
:10116C008B689A4206D3096802F07CFAA368AB60DC
:10117C0000230AE0FFF77EFE23682B6063686B6038
:10118C00A368AB60002323606360A36038BD884212
:10119C0010B50B46044607D0096819B19A68FFF7D9
:1011AC00AEFF01E0FFF783FF204610BD10B50446EB
:1011BC0000230360436083600373FFF7E8FF20465E
:1011CC0010BD884210B5044601D0FFF7C3FF20467E
:1011DC0010BD38B505460C4641B1084602F065FA1B
:1011EC00214602462846FFF78AFF01E0FFF75FFF22
:1011FC00284638BD10B5044600238AB023606360CE
:10120C00A3602373084601A9FFF7D1FE01A920466C
:10121C00FFF7DFFF20460AB010BD10B504468AB0B8
:10122C0019460023104623606360A36023739DF866
:10123C00302001ABFFF7D2FE01A92046FFF7C9FF12
:10124C0020460AB010BD024600680B6808B15BB9B5
:10125C0005E023B1896811B118784042704738B164
:10126C00936823B100787047194602F0F1B918461B
:10127C00704708B582688B689A4205D1FFF7E3FF87
:10128C00B0FA80F0400908BD002008BD08B582689E
:10129C000B4612B919B9012008BD11B903681878A9
:1012AC0002E0006802F0D4F9B0FA80F0400908BD01
:1012BC00F8B506460D468F180024BD420CD0336895
:1012CC0015F8011B9B6830469847002801DB044445
:1012DC00F3E7002C08BF04462046F8BD70B5054660
:1012EC000C46084649B102F0E0F92B68024621464B
:1012FC002846BDE87040DB68184770BD08B5FFF79D
:10130C00EDFF08BD03689B681847012A98BF0A22A5
:10131C0030B50B468BB000218DF824100DF1230451
:10132C00B3FBF2F505FB1233DBB2092B94BF303360
:10133C003733DBB2214604F801392B46002DEFD1AF
:10134C00FFF7CCFF0BB030BD2DE9F04719468046B6
:10135C00104617461E469DF8205001F01DFF08B19F
:10136C004D4912E026F000444FF0FF324B4B38460B
:10137C00214601F011FF68B94FF0FF32474B384658
:10138C00214601F0EBFE28B945494046FFF7A6FF80
:10139C00BDE8F0874FF06042424B3846314601F0D1
:1013AC00F1FE08B14049F0E74FF060423F4B384640
:1013BC00314601F0C9FE0028F4D100220023384642
:1013CC00314601F0C1FE38B12D214046FFF79AFF9E
:1013DC0006F10046044600E0044635494FF000098A
:1013EC0000205FFA89F39D4206D90022314B01F0AF
:1013FC0063FD09F10109F4E73A46334601F080FA3E
:10140C000F46064601F006FF0A2201468146404679
:10141C00FFF77BFF0444E5B3484601F0ADFB024601
:10142C000B463046394601F069FA06460F464046EF
:10143C002149FFF753FF044400221E4B3046394626
:10144C0001F010FC06460F4601F0BCFEB0F1000A9C
:10145C0007DA2D214046FFF755FFCAF100018146FE
:10146C0002E051464FF000090A224046FFF74DFFBB
:10147C0048440444504601F08FFB02460B4630466C
:10148C00394601F03BFA013D15F0FF0506460F46C3
:10149C00D2D12046BDE8F087B0370A08FFFFEF7FB6
:1014AC00BA370A08FFFFEF41B4370A08FFFFEFC154
:1014BC000000E03F00002440B8370A089DF80010F7
:1014CC000091FFF741BF00231A4619464068FFF709
:1014DC0069BC0B68036013B15A6801325A607047DB
:1014EC00014A024B1A60704734380A080402002083
:1014FC00024B1A68024B1A60704700BF14000020A0
:10150C00080200200021FFF701BC10B583680446D7
:10151C0013B1032201469847204610BD10B504466E
:10152C00FFF7F3FF204610BD13B50B46044603C866
:10153C008DE8030093E8030084E803009DE80300B2
:10154C0083E8030002B010BD034800238360034A04
:10155C00034900F041BF00BF0C02002080000020B6
:10156C0029150A0808B5144B33B100F05BFC03686D
:10157C001B699847002816DC104B33B100F010FDA6
:10158C0003681B699847002810DC0D4B0BB1AFF3B7
:10159C0000800C4B7BB100F081FC03681B69984701
:1015AC00002806DC08BDAFF30080E5E7AFF3008050
:1015BC00EBE7AFF3008008BD000000000000000066
:1015CC00000000000000000008B5FFF7CBFFFFF79C
:1015DC009BFA014B186008BDA00600200248034A84
:1015EC000349121A01F0F8BF0040024004400240C7
:1015FC00983A0A0807B5002300931A466FF0770152
:10160C00FFF7A6FB03B05DF804FB000007B54388A9
:10161C000A2B08D0502B09D1094B1B683BB103B0E6
:10162C005DF804EB1847FFF7E5FF06E00023009395
:10163C001A466FF07701FFF78BFB03B05DF804FBE4
:10164C001C02002038B5104C104D2368AB42104BD7
:10165C000CBF012200221A7002D0FFF7BFFF2560D9
:10166C00FFF742FA044601F0CBFF0A4B13B12046B8
:10167C00AFF3008000210748FFF7ECFBBDE83840D2
:10168C0000210548FFF75ABB004002401E1C279A58
:10169C00200200200000000019160A0870470020E4
:1016AC00704710B50446102100F0A4FE204610BD72
:1016BC0008B508B1FFF7F5FF08BD002202604FF630
:1016CC009C72828010B5B1F9044084808A800268D3
:1016DC000C6804600A6010BD10B504460068FFF782
:1016EC00C9FB204610BD38B5C468F4B12378022B71
:1016FC0003D104F10C00FFF7EFFF656835B1284604
:10170C00FFF703FF1021284600F074FEA56835B1E1
:10171C002846FFF7FAFE1021284600F06BFE204603
:10172C00BDE83840142100F065BE38BD10B588B056
:10173C0004466846FFF7FBFC694604A8FFF736FD34
:10174C0004A8A047044604A8FFF7AAFC6846FFF7C4
:10175C00A7FC204608B010BDF0B507460E4615464E
:10176C0085B0102422460021684601F040FF00227B
:10177C0069461046ADF80040029703960195FFF7B5
:10178C0049FB05B0F0BD13B5044691E805000023F4
:10179C004B600B602060626001A801930093FEF720
:1017AC00E9FD204602B010BDF7B50C4606460F46C3
:1017BC0054F8043B02AD45F8083D214601A8FFF75B
:1017CC0088FE29463046FFF7DEFF01A8FEF7D2FD62
:1017DC002046FEF7CFFD3846082100F00BFE3046C0
:1017EC0003B0F0BD38B500230446036010200D464D
:1017FC00FEF74DFC28B1012343608360024BC560AA
:10180C0003602060204638BDD4380A08826810B5C1
:10181C000AB900F002FEC368BDE81040184708B5CD
:10182C00006800F11001FFF7F1FF08BD826810B5E8
:10183C000AB900F0F2FDC368BDE81040184708B5BE
:10184C00006800F11001FFF7F1FF08BD38B5002367
:10185C0083608B6804460D462BB102229847EB68D7
:10186C00E360AB68A360204638BD0000F0B589B0DA
:10187C0004686846FFF721FF4FF0020200238DF841
:10188C000830D4E84F3F002B03D1C4E8412F002986
:10189C00F7D102D08DF8083063E014F10C0503D0B9
:1018AC0069462846FFF709FFBFF35F8F012363707A
:1018BC00BFF35F8F04F10803002053E8006F43E887
:1018CC000002002AF9D1BFF35F8F002E49D0FFF739
:1018DC0025FA20B129463046FFF798FF3AE0314609
:1018EC0002A8FFF7B3FFE068B4F9105008B101F09B
:1018FC00C1FE06901020ADF81C50FEF7C8FB054643
:10190C00E8B1002787601820FEF7C1FB044688B1B8
:10191C000146876002A8FFF707FE049BA268A3603C
:10192C00059B0492E26806A9E36004F1100005929D
:10193C00FFF7C3FE0D4B2C60EB600D4BAB6006A8A4
:10194C00FFF7CAFE02A8FFF7E0FD0022294609486E
:10195C00FFF7ECF93046FFF7D8FD1021304600F0C8
:10196C0049FD6846FFF7B8FE09B0F0BD2B180A0810
:10197C00A11A0A08F91F0A082DE9F04F8BB0064688
:10198C000F46904699469DF850A0FFF74BFA07ADCD
:10199C00834630BB4FF62E73059005A92846ADF84B
:1019AC001830FFF78AFE1420FEF771FB044658B17D
:1019BC000223037001234370C0F804B0C0F808B0D0
:1019CC0029460C30FFF779FE3046214640F8044B8F
:1019DC00FFF708FF2846FFF77FFE05A8FFF77CFE00
:1019EC0052E000240C2314206C60AC600793FEF7CB
:1019FC004EFB014618B1047044704460846004A826
:101A0C000391FFF7EFFE224B08200893FEF73FFBF4
:101A1C00044628B1039B04A940F8043BFFF759FD89
:101A2C0000955FFA8AF34A46414638460994FFF717
:101A3C0001FA20B9039B5B7803F0FF0283B1039B8F
:101A4C0004A906A80593FFF744FD05A93046FFF746
:101A5C009AFE06A8FEF78EFC04A8FEF78BFC13E09A
:101A6C004FF69C7305A903A80592ADF81830FFF743
:101A7C00FDFE05A8FFF730FE05A80999FFF794FEB7
:101A8C0006A8FEF777FCDAE730460BB0BDE8F08F1E
:101A9C00111C0A08022AF8B5044606D0032A17D0EE
:101AAC00012A22D10B6803601FE018200E68FEF794
:101ABC00EEFA054650B13146FFF7C8FE3069B6F96B
:101ACC00147008B101F0D6FD2861AF8225600CE0DE
:101ADC00046854B104F11000FFF7FEFD2046FFF737
:101AEC0014FD1821204600F085FC0020F8BD38B507
:101AFC00002383608B6804460D462BB10222984765
:101B0C00EB68E360AB68A360204638BD022A70B571
:101B1C00044606D0032A11D0012A18D10B680360A1
:101B2C0015E014200E68FEF7B2FA054620B13146D6
:101B3C00FFF7DDFF337C2B74256008E0046834B1BB
:101B4C002046FFF7E2FC1421204600F053FC002055
:101B5C0070BD0000F0B50C46BFF35F8F87B000235B
:101B6C0050E8006F40E80032002AF9D1BFF35F8FD4
:101B7C00002E3FD01846FFF7D1F8074620B121467A
:101B8C003046FFF753FE2EE0314601A8FFF7AFFFBA
:101B9C00237810208DF81430FEF779FA0546D0B171
:101BAC0087601420FEF773FA044678B1876001460B
:101BBC0001A8FFF7B9FC039BA268A360049B0392E6
:101BCC00E268E3609DF81430049223740A4B2C6095
:101BDC00EB600A4BAB6001A8FFF797FC002229468B
:101BEC000748FFF7A3F83046FFF78FFC102130466B
:101BFC0000F000FC07B0F0BD4B180A08191B0A08CE
:101C0C00F91F0A0830B5044685B00D4668461146E2
:101C1C00FFF7CAFD7CB124B228460DB101F02AFDB4
:101C2C00029002A96846ADF80C40FFF71FFE02A80F
:101C3C00FFF752FD1DE04FF0010200988DF80840AF
:101C4C00D0E84F3FA34203D1C0E8412F0029F7D180
:101C5C0002D08DF808300CE010F10C014FF00103AC
:101C6C0018BF0373BFF35F8F043000F8033CFFF71A
:101C7C0071FF01A8FEF77EFB05B030BD704710B5B3
:101C8C000446182100F0B6FB204610BDF8B50F46EF
:101C9C0000F10806051D002416F8011D0A2238461D
:101CAC00FFF733FBAE42044407D0002CF4D02E21B6
:101CBC003846FFF727FB0444EEE72046F8BD00004A
:101CCC0010B50446044B112240F8043B002101F0EE
:101CDC008EFC204610BD00BFF0380A080346074AA8
:101CEC0010B543F8042B01F1100251F8044B91424A
:101CFC0043F8044BF9D10A781A7010BDF0380A0871
:101D0C00024A41600260042202757047F0380A08EA
:101D1C0010B59DF8084044EA032343EA024242EA24
:101D2C00016104234160037510BD000037B5044DFB
:101D3C0005609DF818500095FFF7EAFF03B030BD21
:101D4C00F0380A0841747047704708B50021007CD0
:101D5C00FEF7B4FF30EA200028BF4FF0FF3008BD7B
:101D6C0008B50121007CFEF7A9FF30EA200028BF4E
:101D7C004FF0FF3008BD08B5007CFEF797FF20EA56
:101D8C00E07008BD08B5007CFEF788FF20EAE07023
:101D9C0008BD007CFEF7A2BF10B50446142100F06C
:101DAC0029FB204610BD38B50446007C0D46FEF7D5
:101DBC007DFF002801DC607C28B12946207CFEF7E1
:101DCC0085FF20EAE07038BD10B50446002363603F
:101DDC004FF47A73A360054B0846236001232174EA
:101DEC0063741146FEF74AFF204610BD04390A08F9
:101DFC000022007CFEF74ABF10B5044614220021D5
:101E0C0001F0F5FB054B20466360054BE36040F2A7
:101E1C00011323818123238210BD00BFA90200205E
:101E2C002802002030B50E4D87B001A8FFF7E4FF63
:101E3C00296811F0010410D12846FEF72CF960B185
:101E4C0001AA21460748FFF7BFFF2846FEF728F9ED
:101E5C00054A0649034800F0BFFA024807B030BDF6
:101E6C0024020020AC03002080000020551D0A082D
:101E7C0010B504461422002101F0B9FB054B204695
:101E8C006360054BE36040F20113238181232382BD
:101E9C0010BD00BF5C040020C403002010B50E4C24
:101EAC0086B001A8FFF7E4FF2368DB0710D42046B7
:101EBC00FEF7F1F860B101AA01210848FFF784FF91
:101ECC002046FEF7EDF8064A0649044800F084FA6D
:101EDC00024806B010BD00BFC0030020480400201B
:101EEC0080000020551D0A0870474174704708B5E2
:101EFC00007CFEF759FE20EAE07008BD08B5007CB6
:101F0C00FEF72AFE20EAE07008BD08B5007CFEF75B
:101F1C0033FE30EA200028BF4FF0FF3008BD08B573
:101F2C00007CFEF721FE30EA200028BF4FF0FF3086
:101F3C0008BD007CFEF728BE10B50446142100F045
:101F4C0059FA204610BD70B5457C04460E4625B99D
:101F5C00007CFEF729FE002805DD3146207CBDE81B
:101F6C007040FEF7F1BD284670BD000010B5044668
:101F7C0008461146002262604FF47A72A260054A4C
:101F8C0020742260012262741A46FEF7D5FD2046A9
:101F9C0010BD00BF34390A08007CFEF7FDBD0000FF
:101FAC0038B50C4D296811F0010411D12846FEF703
:101FBC0072F868B1084A2146084B0948FFF7D6FF6A
:101FCC002846FEF76DF8074A0749054800F004FA61
:101FDC00034838BDF8050020FC05002074050020DE
:101FEC006005002080000020F51E0A0810B58368EB
:101FFC0004460BB900F011FAC3689847A3681BB1EB
:10200C0003222146204698472046BDE81040102167
:10201C0000F0F0B97047F8B5064615460C468F1817
:10202C00BC4206D0336814F8011B9B6830469847B5
:10203C00F6E72846F8BD0022007CFEF7E5BD00213E
:10204C00007CFEF7E9BD0021007CFEF7EDBD002110
:10205C00007CFEF7F1BD0021007CFEF7F5BD10B54C
:10206C000446142100F0C6F9204610BD10B50446F4
:10207C00002363604FF47A73A360044B2174084609
:10208C0023601146FEF7F0FD204610BD64390A08A6
:10209C000022007CFEF790BD0022007CFEF794BD70
:1020AC0000231A461946007CFEF796BD0022007CE0
:1020BC00FEF79ABD0022007CFEF79EBD0121FFF7C2
:1020CC00F9BF0021007CFEF7C7BD00221146406815
:1020DC00FEF760BEF0B5164689B011220F460446D5
:1020EC00002103A801F083FA304601F0DEFA002546
:1020FC00009581B27B6803AA3046FEF7F7FD20B14C
:10210C0029462046FFF7FCFD03E003A92046FFF714
:10211C00E5FD204609B0F0BD002211464068FEF7EF
:10212C0059BE002211464068FEF764BE002240688A
:10213C00FEF758BE002281F001014068FEF742BE56
:10214C0000231A4619464068FEF734BE0022114699
:10215C004068FEF70FBE002202214068FEF712BE57
:10216C0000231A464068FEF7FDBD0000024B042216
:10217C005A60024A1A607047800600208C390A089F
:10218C0000231A464068FEF7EDBD0022022140688C
:10219C00FEF7F8BD002211464068FEF7EBBD0022A9
:1021AC0011464068FEF7F6BD00231A4619464068F2
:1021BC00FEF7F8BD00231A4619464068FEF7FABD33
:1021CC00002281F001014068FEF7FCBD002240684E
:1021DC00FEF708BE002211464068FEF70BBE002237
:1021EC0011464068FEF7F6BD70B516468EB0044633
:1021FC0008A8FFF765FD1122002103A801F0F7F9EB
:10220C00304601F052FA00250A4B009581B25B680A
:10221C0003AA3046FEF76AFD20B129462046FFF797
:10222C006FFD03E003A92046FFF758FD20460EB0D2
:10223C0070BD00BF80060020024B034A1A600022CA
:10224C005A60704788060020C0390A0810B5044649
:10225C00806808B1FEF768FC204610BD70B51A4EB8
:10226C000446316811F001050FD13046FDF713FF1C
:10227C0058B129461548FEF725FE3046FDF710FFEC
:10228C00134A1449114800F0A7F81048FEF729FE2C
:10229C0028B1A4F10D03022B01D8002070BD00F071
:1022AC0075F8FFF70EFF08B1012CF6D9FFF778FE91
:1022BC00FFF772FE18B1A4F11203012BEDD9172C04
:1022CC008CBF0020012070BD9006002094060020D9
:1022DC008000002059220A08172838B504460D46FC
:1022EC000AD8FF2908D0FFF7B9FF28B129462046A4
:1022FC00BDE83840FEF7D8BB38BD10B504460928F8
:10230C009CBF0A34A4B22046FFF7A8FF50B10321AA
:10231C002046FEF7C1FB032804D12046BDE810403F
:10232C00FEF7CABB002010BD13B5084C00231A469B
:10233C00194600932046FFF7F9FC2046044A05494C
:10234C0002B0BDE8104000F047B800BFA406002062
:10235C0080000020891C0A0870B5044614252A4602
:10236C00094E002101F043F9258020253146A56056
:10237C002561284600F040F831466060284600F0A0
:10238C003BF8E060204670BDEC390A0830B50E4DC4
:10239C0087B0296811F0010413D12846FDF77BFEA4
:1023AC0078B101A8FFF7D8FF01AA21460748FFF72B
:1023BC005DFE2846FDF774FE054A0649034800F009
:1023CC000BF8024807B030BDBC060020C006002048
:1023DC008000002021200A080B460146184601F017
:1023EC00EDB80000024B1868BFF35F8F704700BF59
:1023FC00D4060020FDF74DBE00F000B810B5002843
:10240C0014BF044601242046FEF72CFD20B9FFF72B
:10241C00E9FF08B18047F6E710BD08B5FEF73AFDB5
:10242C00184B1A68D1075CBF01221A60164B1A6848
:10243C00D2075CBF01221A60144B1A68D0075CBF2C
:10244C0001221A60124B1A68D1075CBF01221A6074
:10245C00104B1A68D2075CBF01221A600E4B1A6827
:10246C00D0075CBF01221A600C4B1A68D1075CBF05
:10247C0001221A600A4B1A68D2075CBF01221A604B
:10248C00704700BFF4060020F0060020EC06002088
:10249C00E8060020E4060020E0060020DC06002010
:1024AC00D8060020244B1A68D0075CBF01221A60A2
:1024BC00224B1A68D1075CBF01221A60204B1A68A4
:1024CC00D2075CBF01221A601E4B1A68D0075CBF92
:1024DC0001221A601C4B1A68D1075CBF01221A60DA
:1024EC001A4B1A68D2075CBF01221A60184B1A6883
:1024FC00D0075CBF01221A60164B1A68D1075CBF6B
:10250C0001221A60144B1A68D2075CBF01221A60B0
:10251C00124B1A68D0075CBF01221A60104B1A6864
:10252C00D1075CBF01221A600E4B1A68D2075CBF40
:10253C0001221A60704700BF2407002020070020EA
:10254C001C0700201807002014070020100700208B
:10255C000C070020080700200407002000070020BB
:10256C00FC060020F8060020244B1A68D0075CBF3C
:10257C0001221A60224B1A68D1075CBF01221A6033
:10258C00204B1A68D2075CBF01221A601E4B1A68D6
:10259C00D0075CBF01221A601C4B1A68D1075CBFC4
:1025AC0001221A601A4B1A68D2075CBF01221A600A
:1025BC00184B1A68D0075CBF01221A60164B1A68B8
:1025CC00D1075CBF01221A60144B1A68D2075CBF9A
:1025DC0001221A60124B1A68D0075CBF01221A60E4
:1025EC00104B1A68D1075CBF01221A600E4B1A6897
:1025FC00D2075CBF01221A60704700BF540700204D
:10260C00500700204C0700204807002044070020FA
:10261C00400700203C07002038070020340700202A
:10262C00300700202C07002028070020184B1A68C0
:10263C00D1075CBF01221A60164B1A68D2075CBF27
:10264C0001221A60144B1A68D0075CBF01221A6071
:10265C00124B1A68D1075CBF01221A60104B1A6822
:10266C00D2075CBF01221A600E4B1A68D0075CBF00
:10267C0001221A600C4B1A68D1075CBF01221A6048
:10268C000A4B1A68D2075CBF01221A60704700BF60
:10269C0074070020700700206C07002068070020DA
:1026AC0064070020600700205C070020580700200A
:1026BC002DE9F04F8BB004460D4600F055F8284B31
:1026CC00064693F900A00F46BAF1FF3F12D02246FE
:1026DC002B462046294600F05FFD834650B94FF04B
:1026EC0000084FF000092046294642464B4600F0B0
:1026FC002BFD20B9304639460BB0BDE8F08F194A96
:10270C000123CDF820B0CDE90445CDE90245019275
:10271C000093BAF1000F15D042464B46404649464D
:10272C0000F0CAFBBAF1020FCDE906010CD1FEF79D
:10273C00C1FB21230360089B63B9DDE906010BB0E3
:10274C00BDE8F08FCDE90689684600F0D1F8002885
:10275C00F1D1ECE7FEF7AEFB089B0360EDE700BFA1
:10276C0018000020F0390A082DE9F0415F4E0C46A4
:10277C00B6460E407645054600F0988000290B467B
:10278C00024674DD5FEA215E7FD0AEF2FF3EC3F3FA
:10279C0013031EF0010F43F4801363D100273E4650
:1027AC0003EBD2710B444FEA6E0E520016204FF41D
:1027BC00001174189C424FEAD2754FEA420202DCB7
:1027CC001B1B66180F44013805EB43034FEA5101FC
:1027DC00EFD1844620244FF0004109E020D003EBD8
:1027EC00D275013C4FEA51012B444FEA420220D0F2
:1027FC009E4201EB0C05F1DA002D05EB010C09DB17
:10280C00B0469542A3EB060300D9013B4646521B4A
:10281C000844E4E7BCF1000FF2DB06F10108F0E735
:10282C00954217D8002D05EB010C49DB9846002387
:10283C00ECE7134310D140087B1003F17F5303F5F1
:10284C000013FA0703EB0E57394648BF40F000401F
:10285C00BDE8F0813346C2E7411C35D000F00103DE
:10286C001844E8E75B0003EBD273520096E721F0C3
:10287C0000460643ECD079BB8E46D30AAEF1150E5A
:10288C005205002BF9D0DD0221D4002100E00146D5
:10289C005B00DC0201F10100F9D5C0F1200422FA41
:1028AC0004F42343C1EB0E0E82406EE702460B4646
:1028BC0000F0D8F92A46234600F022F8BDE8F08152
:1028CC00BCF1000FA9DAB1E701372046B4E72024A8
:1028DC004FF0FF310020E2E702460B4600F00EF805
:1028EC0002460B4600F0E8FAB2E700BF0000F07FAA
:1028FC000020704781F0004102E000BF83F00043EC
:10290C0030B54FEA41044FEA430594EA050F08BF7E
:10291C0090EA020F1FBF54EA000C55EA020C7FEA42
:10292C00645C7FEA655C00F0E2804FEA5454D4EBBF
:10293C005555B8BF6D420CDD2C4480EA020281EA89
:10294C00030382EA000083EA010180EA020281EAC1
:10295C000303362D88BF30BD11F0004F4FEA013113
:10296C004FF4801C4CEA113102D0404261EB410122
:10297C0013F0004F4FEA03334CEA133302D05242A8
:10298C0063EB430394EA050F00F0A780A4F1010464
:10299C00D5F1200E0DDB02FA0EFC22FA05F280189E
:1029AC0041F1000103FA0EF2801843FA05F3594184
:1029BC000EE0A5F120050EF1200E012A03FA0EFC03
:1029CC0028BF4CF0020C43FA05F3C01851EBE3712D
:1029DC0001F0004507D54FF0000EDCF1000C7EEB4A
:1029EC0000006EEB0101B1F5801F1BD3B1F5001F88
:1029FC000CD349085FEA30004FEA3C0C04F10104A7
:102A0C004FEA445212F5800F80F09A80BCF1004FCF
:102A1C0008BF5FEA500C50F1000041EB045141EA51
:102A2C00050130BD5FEA4C0C404141EB010111F452
:102A3C00801FA4F10104E9D191F0000F04BF0146FD
:102A4C000020B1FA81F308BF2033A3F10B03B3F1DB
:102A5C0020020CDA0C3208DD02F1140CC2F10C026B
:102A6C0001FA0CF021FA02F10CE002F11402D8BFC9
:102A7C00C2F1200C01FA02F120FA0CFCDCBF41EA95
:102A8C000C019040E41AA2BF01EB0451294330BD64
:102A9C006FEA04041F3C1CDA0C340EDC04F1140441
:102AAC00C4F1200220FA04F001FA02F340EA030018
:102ABC0021FA04F345EA030130BDC4F10C04C4F15E
:102ACC00200220FA02F001FA04F340EA030029463E
:102ADC0030BD21FA04F0294630BD94F0000F83F488
:102AEC00801306BF81F480110134013D4EE77FEA6B
:102AFC00645C18BF7FEA655C29D094EA050F08BFB7
:102B0C0090EA020F05D054EA000C04BF1946104697
:102B1C0030BD91EA030F1EBF0021002030BD5FEADB
:102B2C00545C05D14000494128BF41F0004130BD03
:102B3C0014F580043CBF01F5801130BD01F0004557
:102B4C0045F0FE4141F470014FF0000030BD7FEACA
:102B5C00645C1ABF194610467FEA655C1CBF0B46C5
:102B6C00024650EA013406BF52EA033591EA030FDC
:102B7C0041F4002130BD00BF90F0000F04BF0021D4
:102B8C00704730B54FF4806404F132044FF0000507
:102B9C004FF0000150E700BF90F0000F04BF002180
:102BAC00704730B54FF4806404F1320410F00045E6
:102BBC0048BF40424FF000013EE700BF42004FEAE1
:102BCC00E2014FEA31014FEA02701FBF12F07F435E
:102BDC0093F07F4F81F06051704792F0000F14BF5B
:102BEC0093F07F4F704730B54FF4607401F000459F
:102BFC0021F0004120E700BF50EA010208BF7047F6
:102C0C0030B54FF000050AE050EA010208BF7047EA
:102C1C0030B511F0004502D5404261EB41014FF453
:102C2C00806404F132045FEA915C3FF4DCAE4FF057
:102C3C0003025FEADC0C18BF03325FEADC0C18BF3E
:102C4C00033202EBDC02C2F1200300FA03FC20FA8F
:102C5C0002F001FA03FE40EA0E0021FA02F11444DC
:102C6C00C1E600BF70B54FF0FF0C4CF4E06C1CEAF1
:102C7C0011541DBF1CEA135594EA0C0F95EA0C0F66
:102C8C0000F0DEF82C4481EA030621EA4C5123EAD9
:102C9C004C5350EA013518BF52EA033541F4801108
:102CAC0043F4801338D0A0FB02CE4FF00005E1FBBB
:102CBC0002E506F00042E0FB03E54FF00006E1FB05
:102CCC0003569CF0000F18BF4EF0010EA4F1FF0448
:102CDC00B6F5007F64F5407404D25FEA4E0E6D4188
:102CEC0046EB060642EAC62141EA55514FEAC52099
:102CFC0040EA5E504FEACE2EB4F1FD0C88BFBCF515
:102D0C00E06F1ED8BEF1004F08BF5FEA500E50F1C5
:102D1C00000041EB045170BD06F0004646EA01018B
:102D2C0040EA020081EA0301B4EB5C04C2BFD4EBBD
:102D3C000C0541EA045170BD41F480114FF0000EB6
:102D4C00013C00F3AB8014F1360FDEBF002001F024
:102D5C00004170BDC4F10004203C35DA0C341BDC9E
:102D6C0004F11404C4F1200500FA05F320FA04F070
:102D7C0001FA05F240EA020001F0004221F00041A4
:102D8C0010EBD37021FA04F642EB06015EEA430E17
:102D9C0008BF20EAD37070BDC4F10C04C4F1200547
:102DAC0000FA04F320FA05F001FA04F240EA0200FA
:102DBC0001F0004110EBD37041F100015EEA430ECB
:102DCC0008BF20EAD37070BDC4F1200500FA05F2EB
:102DDC004EEA020E20FA04F301FA05F243EA02036A
:102DEC0021FA04F001F0004121FA04F220EA020079
:102DFC0000EBD3705EEA430E08BF20EAD37070BDBF
:102E0C0094F0000F0FD101F00046400041EB01019E
:102E1C0011F4801F08BF013CF7D041EA060195F080
:102E2C00000F18BF704703F00046520043EB03033A
:102E3C0013F4801F08BF013DF7D043EA0603704727
:102E4C0094EA0C0F0CEA135518BF95EA0C0F0CD032
:102E5C0050EA410618BF52EA4306D1D181EA030178
:102E6C0001F000414FF0000070BD50EA410606BF72
:102E7C001046194652EA430619D094EA0C0F02D1B7
:102E8C0050EA013613D195EA0C0F05D152EA0336FC
:102E9C001CBF104619460AD181EA030101F000411A
:102EAC0041F0FE4141F470014FF0000070BD41F063
:102EBC00FE4141F4780170BD70B54FF0FF0C4CF43D
:102ECC00E06C1CEA11541DBF1CEA135594EA0C0F5C
:102EDC0095EA0C0F00F0A7F8A4EB050481EA030EA9
:102EEC0052EA03354FEA013100F088804FEA033390
:102EFC004FF0805545EA131343EA12634FEA02225E
:102F0C0045EA111545EA10654FEA00260EF000411E
:102F1C009D4208BF964244F1FD0404F5407402D270
:102F2C005B084FEA3202B61A65EB03055B084FEA01
:102F3C0032024FF480104FF4002CB6EB020E75EBFE
:102F4C00030E22BFB61A754640EA0C005B084FEA26
:102F5C003202B6EB020E75EB030E22BFB61A7546A3
:102F6C0040EA5C005B084FEA3202B6EB020E75EBEE
:102F7C00030E22BFB61A754640EA9C005B084FEA66
:102F8C003202B6EB020E75EB030E22BFB61A754673
:102F9C0040EADC0055EA060E18D04FEA051545EA62
:102FAC0016754FEA06164FEAC30343EA52734FEA0B
:102FBC00C2025FEA1C1CC0D111F4801F0BD141EA84
:102FCC0000014FF000004FF0004CB6E711F4801FE9
:102FDC0004BF01430020B4F1FD0C88BFBCF5E06FC9
:102FEC003FF6AFAEB5EB030C04BFB6EB020C5FEAD9
:102FFC00500C50F1000041EB045170BD0EF0004E2E
:10300C004EEA113114EB5C04C2BFD4EB0C0541EA5F
:10301C00045170BD41F480114FF0000E013C90E65C
:10302C0045EA060E8DE60CEA135594EA0C0F08BF20
:10303C0095EA0C0F3FF43BAF94EA0C0F0AD150EA1F
:10304C0001347FF434AF95EA0C0F7FF425AF1046B2
:10305C0019462CE795EA0C0F06D152EA03353FF4DA
:10306C00FDAE1046194622E750EA410618BF52EA57
:10307C0043067FF4C5AE50EA41047FF40DAF52EA2B
:10308C0043057FF4EBAE12E74FF0FF3C06E000BFC8
:10309C004FF0010C02E000BF4FF0010C4DF804CDD5
:1030AC004FEA410C7FEA6C5C4FEA430C18BF7FEA95
:1030BC006C5C1BD001B050EA410C0CBF52EA430CC3
:1030CC0091EA030F02BF90EA020F0020704710F143
:1030DC00000F91EA030F58BF994208BF90422CBFD2
:1030EC00D8176FEAE37040F0010070474FEA410CCB
:1030FC007FEA6C5C02D150EA013C07D14FEA430CE9
:10310C007FEA6C5CD6D152EA033CD3D05DF8040B59
:10311C00704700BF8446104662468C46194663468B
:10312C0000E000BF01B5FFF7B7FF002848BF10F162
:10313C00000F01BD4DF808EDFFF7F4FF0CBF0120A7
:10314C0000205DF808FB00BF4DF808EDFFF7EAFF23
:10315C0034BF012000205DF808FB00BF4DF808EDDE
:10316C00FFF7E0FF94BF012000205DF808FB00BFD3
:10317C004DF808EDFFF7CEFF94BF012000205DF85D
:10318C0008FB00BF4DF808EDFFF7C4FF34BF01206A
:10319C0000205DF808FB00BF4FEA410C7FEA6C5C35
:1031AC0002D150EA013C0AD14FEA430C7FEA6C5C35
:1031BC0002D152EA033C02D14FF0000070474FF0AD
:1031CC00010070474FEA410212F5001215D211D5D9
:1031DC006FF47873B3EB625212D94FEAC12343F008
:1031EC00004343EA505311F0004F23FA02F018BF8A
:1031FC00404270474FF00000704750EA013005D153
:10320C0011F0004008BF6FF0004070474FF0000015
:10321C00704700BF4A0011D212F5001211D20DD521
:10322C006FF47873B3EB62520ED44FEAC12343F0C0
:10323C00004343EA505323FA02F070474FF000006A
:10324C00704750EA013002D14FF0FF3070474FF019
:10325C000000704753B94AB9002908BF00281CBFA9
:10326C004FF0FF314FF0FF3000F0A6B9ADF1080C74
:10327C006DE904CE00F02AF8DDF804E0DDE9022364
:10328C0004B07047D0B500220E4B06460F46FFF730
:10329C00E9FCFFF7BFFF0446FFF76EFC00220A4B68
:1032AC00FFF7E0FC02460B4630463946FFF726FB9B
:1032BC00FFF7B0FF2346002242EA000210461946EF
:1032CC00D0BD00BF0000F03D0000F0412DE9F04FF3
:1032DC008C460C460546099E002B4FD18A42174658
:1032EC006BD9B2FA82FEBEF1000F0BD0CEF12005E5
:1032FC0020FA05F501FA0EF345EA030C02FA0EF773
:10330C0000FA0EF5390CBCFBF1F0BAB201FB10C39C
:10331C0000FB02F84FEA154C4CEA0344A04509D9CE
:10332C00E41900F1FF3380F02881A04540F225819B
:10333C0002383C44C8EB0404B4FBF1F301FB134C1E
:10334C0003FB02F2ACB244EA0C418A4209D9C91916
:10335C0003F1FF3480F00F818A4240F20C81023B72
:10336C0039448A1A43EA00400021002E63D022FA25
:10337C000EF2002386E80C00BDE8F08F8B4207D9D3
:10338C00002E56D0002186E811000846BDE8F08FCB
:10339C00B3FA83F1002940F09380A34202D3824216
:1033AC0000F2FE80851A64EB03039C460120002E7C
:1033BC0041D086E82010BDE8F08F12B90127B7FB89
:1033CC00F2F7B7FA87FEBEF1000F36D1E41B4FEAD5
:1033DC0017481FFA87F90121B4FBF8F308FB1344D3
:1033EC0009FB03F24FEA154C4CEA0444A24207D9FC
:1033FC00E41903F1FF3002D2A24200F2D38003465B
:10340C00A41AB4FBF8F008FB104809FB00F9ACB2A5
:10341C0044EA0842914507D9D21900F1FF3402D28F
:10342C00914500F2BA802046C9EB020240EA034003
:10343C009BE731463046BDE8F08F07FA0EF7CEF128
:10344C00200C24FA0CF34FEA1748B3FBF8FA1FFAD6
:10345C0087F908FB1A3520FA0CFC04FA0EF40AFB67
:10346C0009FB4CEA040C4FEA1C4242EA05439B451B
:10347C0000FA0EF50AD9DB190AF1FF3280F08B80C5
:10348C009B4540F28880AAF1020A3B44CBEB030334
:10349C00B3FBF8F008FB103300FB09F41FFA8CFCAB
:1034AC004CEA03439C4207D9DB1900F1FF326ED280
:1034BC009C426CD902383B441C1B40EA0A418BE706
:1034CC00C1F1200E8B4022FA0EFC4CEA030C24FABC
:1034DC000EF74FEA1C49B7FBF9FA1FFA8CF309FBFC
:1034EC001A7720FA0EF88C400AFB03F548EA04041C
:1034FC004FEA144848EA0747BD4202FA01F200FAC3
:10350C0001FB09D917EB0C070AF1FF3041D2BD4280
:10351C003FD9AAF1020A67447F1BB7FBF9F509FBF7
:10352C00157705FB03F3A4B244EA0747BB4208D95D
:10353C0017EB0C0705F1FF3027D2BB4225D9023D12
:10354C00674445EA0A40A0FB0289FF1A4F454546ED
:10355C004C4614D329D066B3BBEB050367EB0407C9
:10356C0007FA0EFECB40CF404EEA030386E88800F4
:10357C000021BDE8F08F2346F3E61846DAE6B8EBF7
:10358C00020569EB0C040138E5E70546D9E710465E
:10359C0092E78246C0E7924678E702383A4443E71E
:1035AC00084604E7023B3C442AE7C345E7D33C46C4
:1035BC00D1E73146BDE8F08F704700BF10B5054C20
:1035CC0013462CB10A4601460220AFF3008010BD11
:1035DC00204610BD0000000010B5431E0A44914265
:1035EC0004D011F8014B03F8014FF8E710BD034666
:1035FC000244934202D003F8011BFAE77047000023
:10360C0038B5124B05461C68A36BD3B91820FDF7CF
:10361C0029FC43F20E33A06303804AF6CD3343807A
:10362C0041F2342383804EF26D63C3804DF6EC631C
:10363C000381052343810B23838101220023C0E9ED
:10364C000423A36B00221D615A6138BD7C0000204D
:10365C0010F8012B11F8013B012A28BF9A42F7D030
:10366C00D01A7047034611F8012B03F8012B002ADE
:10367C00F9D17047024B0146186800F003B800BF3F
:10368C007C00002070B5064608460C4600F00DF88C
:10369C00451C29463046FDF705FC064618B12A465E
:1036AC002146FFF799FF304670BD034613F8012BF6
:1036BC00002AFBD1181A0138704700001D000A08B7
:1036CC005D000A0889000A088D000A080000000045
:1036DC005374617274696E670043616C69627261E4
:1036EC0074696F6E0043616C6962726174696E67B4
:1036FC00002050534900444F4E452100616E616CCF
:10370C006F6756616C005072657373757265006FEC
:10371C00766572726964654F6E006F766572726958
:10372C0064654F666600446F6E6520776974682027
:10373C0063616C6962726174696F6E0050756D7053
:10374C00205374617475733A20007475726E5075E1
:10375C006D704F6E004F4E20007475726E50756D0B
:10376C00704F6666004F4646006D65616E004F7582
:10377C0074206F662052616E6765000000000000C7
:10378C000000000059080A085B080A0827090A0803
:10379C00BD120A08000000004000000014000000E8
:1037AC00540000006E616E006F7666002E00696E2C
:1037BC006600626175640053657269616C005553F3
:1037CC004253657269616C31007479706500706187
:1037DC0072616D00636D6400696400686E640073EF
:1037EC0074726D0066696C74006C766C0061646454
:1037FC0048616E646C65720072656D6F76654861C8
:10380C006E646C657200656E756D48616E646C6596
:10381C007273004A534F4E53747265616D4C6F67EF
:10382C0048616E646C6572006170700025303130D7
:10383C007520005D20002564002C200028293A20EA
:10384C0000205B00636F6465203D200025690064E7
:10385C00657461696C73203D20000D0A006C6E006C
:10386C00666E00636F64650064657461696C006EFC
:10387C006F6E6500747261636500696E666F0077C8
:10388C0061726E006572726F720070616E696300B6
:10389C00616C6C005A00252B3033643A253032753C
:1038AC000025592D256D2D25645425483A254D3A72
:1038BC002553257A0061736374696D6500000000FF
:1038CC000000000000000000A9160A08AF160A0844
:1038DC00F3160A08BD160A08AB160A080000000009
:1038EC0000000000991C0A08891C0A088B1C0A0895
:1038FC000000000000000000551D0A08A51D0A0864
:10390C00B31D0A08BD120A08911D0A08571D0A08A2
:10391C006D1D0A089F1D0A08831D0A08511D0A08FF
:10392C000000000000000000F51E0A08451F0A08F0
:10393C00531F0A08BD120A08091F0A082B1F0A0880
:10394C00171F0A083F1F0A08F71E0A08FB1E0A0861
:10395C00000000000000000021200A086B200A086B
:10396C0043200A0823200A084B200A0853200A087F
:10397C005B200A0863200A08000000000000000019
:10398C006D210A0863210A0859210A08D7200A0860
:10399C00D3140A084D210A0841210A0839210A08C2
:1039AC002F210A0825210A08E1200A08000000003E
:1039BC00000000008D210A0897210A08A1210A089D
:1039CC00AB210A08B5210A08C1210A08CD210A0831
:1039DC00D9210A08E1210A08EB210A08F5210A0875
:1039EC000000000073717274000000000000000001
:1039FC0000000000000000000000000000000000BB
:103A0C0000000000000000000000000000000000AA
:103A1C00000000000000000000000000000000009A
:103A2C00000000000000000000000000000000008A
:103A3C00000000000000000000000000000000007A
:103A4C000000000000000000000000004300000027
:103A5C00AD070A08910A0A08150F0A08ED140A089E
:103A6C00FD140A0855150A0879210A0845220A0886
:103A7C0035230A082D240A08B1240A0875250A08DA
:043A8C0039260A08C5
:083A900048F8FF7F010000006F
:043A9800000000002A
:103A9C0034080000C065520040060000701700009A
:103AAC0010270000C1380A080100000000000000C7
:103ABC00F8390A08183A0A08383A0A0800000000CF
:103ACC00000000000000000000000000583A0A0846
:103ADC0000000000000000000000000000000000DA
:103AEC0000000000000000000000000000000000CA
:103AFC0000000000000000000000000000000000BA
:103B0C000000000000000000000000001C0000206D
:103B1C00FFFFFFFF00000102030405060708090A66
:103B2C000B0C0D0E0F101112131415161718191A61
:083B3C001B1C1D1E1F202800A8
:043B44007856341269
:04000005080A001CC9
:00000001FF
