:02000004080AE8
:1000000000000A0844160A08000006000600050160
:080010000402E80500000000F5
:04001800C4120A08FC
:10001C0009480A4908B5884205D0094A824202D0EB
:10002C00121A01F005F90748074A0021121A01F0CB
:10003C000AF9064808BD00BF00000020B4150A08E4
:10004C006800002068000020FC050020FC05002052
:10005C0070B500F0CBFB074B074C1E46E41AA40806
:10006C000025A54204D056F8253098470135F8E70D
:10007C0070BD00BF78150A08A8150A0800F034B83E
:10008C0008B500F065F8BDE8084000F071BB00F061
:10009C0007BA0078B0FA80F040097047012303706A
:1000AC00704710687047000008B50121002000F06F
:1000BC00D6FEBDE808400249024800F097BA00BFDE
:1000CC00D8120A086C00002008B50021084600F080
:1000DC00C6FEBDE808400249024800F087BA00BFDE
:1000EC00DB120A086C00002010B50C2386B000242B
:1000FC000394ADF80C300F4B042204930E4903AB60
:10010C000E48059400F0ACF9234622460194009465
:10011C000B490C4800F0ACF923462246019400949C
:10012C0009490A4800F0A4F90121204600F086FE96
:10013C0006B010BDAF000A086C000020DF120A08E0
:10014C00B5000A08EA120A08D5000A08F5120A08CE
:10015C007047000010B5074C00F014F80649204613
:10016C0000F031FA2046BDE81040044A044900F082
:10017C00E7BE00BF6C000020AB130A08680000202B
:10018C0045050A0808B5024B1B681B68019308BD9E
:10019C00B001060808B5024B1B689B68019308BDAB
:1001AC00B001060808B5024B1B68DB68019308BD5B
:1001BC00B001060808B5024B1B681B69019308BD0A
:1001CC00B001060808B5024B1B68DB69019308BD3A
:1001DC00B401060808B5024B1B681B6A019308BDE5
:1001EC00B401060808B5024B1B685B68019308BD97
:1001FC009C01060808B5024B1B685B69019308BD9E
:10020C009C01060808B5024B1B685B6C019308BD8A
:10021C00D001060808B5024B1B689B6C019308BD06
:10022C00D001060808B5024B1B689B69019308BDF9
:10023C00C401060808B5024B1B685B6A019308BD34
:10024C00C401060808B5024B1B689B6A019308BDE4
:10025C00C401060808B5024B1B68DB6A019308BD94
:10026C00C401060808B5024B1B681B6B019308BD43
:10027C00C401060808B5024B1B685B6B019308BDF3
:10028C00C401060808B5024B1B689B6B019308BDA3
:10029C00C401060808B5024B1B681B6C019308BD12
:1002AC00C401060808B5024B1B681B6E019308BD00
:1002BC00AC01060808B5024B1B685B6E019308BDC8
:1002CC00AC01060808B5024B1B689B6E019308BD78
:1002DC00AC01060808B5024B1B68DB6E019308BD28
:1002EC00AC01060808B5024B1B681B6F019308BDD7
:1002FC00AC01060808B5024B1B685B6F019308BD87
:10030C00AC01060808B5034B1B68D3F88030019389
:10031C0008BD0000AC01060808B5024B1B681B6841
:10032C00019308BDD801060808B5024B1B681B6970
:10033C00019308BDD801060808B5024B1B685B6920
:10034C00019308BDD801060808B5024B1B689B69D0
:10035C00019308BDD801060808B5024B1B68DB6980
:10036C00019308BDD801060808B5024B1B681B6A2F
:10037C00019308BDD801060808B5024B1B689B6C9D
:10038C00019308BDC001060808B5024B1B685B68E9
:10039C00019308BDA401060808B5034B1B68D3F8EC
:1003AC009030019308BD0000A401060808B5034B6A
:1003BC001B68D3F89C30019308BD0000A40106080B
:1003CC0008B5024B1B685B68019308BDC8010608A1
:1003DC0008B5024B1B689B68019308BDC801060851
:1003EC0008B5024B1B68DB68019308BDC801060801
:1003FC0008B5024B1B681B69019308BDC8010608B0
:10040C0008B5024B1B685B69019308BDC80106085F
:10041C0008B5024B1B689B69019308BDC80106080F
:10042C0008B5024B1B68DB69019308BDC8010608BF
:10043C0008B5024B1B681B6A019308BDC80106086E
:10044C0008B5024B1B681B6B019308BDC80106085D
:10045C0008B5024B1B685B6B019308BDC80106080D
:10046C0008B5024B1B681B68019308BDCC0106083C
:10047C0008B5024B1B685B6A019308BDCC010608EA
:10048C0008B5024B1B68DB6B019308BDCC01060859
:10049C0008B5024B1B681B68019308BDA001060838
:1004AC0008B5024B1B685B68019308BDA0010608E8
:1004BC0008B5024B1B689B68019308BDA001060898
:1004CC0070B504460E46002540F8085FFFF79AFE0B
:1004DC0030462670FFF776FE6560204670BD0078CA
:1004EC00FFF778BE10B50446006818B1FFF7D8FFC7
:1004FC000023236010BD10B50446FFF7F3FF204620
:10050C0010BD00004FF6FF7310B5084C00202060A2
:10051C00A080A07120816381FFF736FF2046BDE8E3
:10052C001040034A034900F00BBD00BF7C000020C3
:10053C006800002003050A0810B504460068FFF7A0
:10054C00AFFF204610BD10B50446006808B1FFF798
:10055C00A7FF00232360A360636010BD38B5044679
:10056C000D4600680131FFF7A3FF10B184E82100AC
:10057C00012038BD10B50368044613B143688B42A3
:10058C0007D22046FFF7EAFF20B1A3680BB9226817
:10059C001370012010BD70B50E4611460446154669
:1005AC00FFF7E8FF18B92046FFF7CDFF09E02A4610
:1005BC003146A560206800F03BFE2268A36800214C
:1005CC00D154204670BD38B5002304460360436007
:1005DC00836003730D4639B1084600F065FE294669
:1005EC0002462046FFF7D7FF204638BD38B50546F2
:1005FC000C4641B1084600F057FE214602462846FB
:10060C00FFF7C9FF01E0FFF79EFF284638BDF8B59C
:10061C0006460D468F180024BD420CD0336815F8E1
:10062C00011B9B6830469847002801DB0444F3E724
:10063C00002C08BF04462046F8BD70B505460C4694
:10064C00084649B100F030FE2B6802462146284688
:10065C00BDE87040DB68184770BD03689B6818479D
:10066C00012A98BF0A2230B50B468BB000218DF8B9
:10067C0024100DF12304B3FBF2F505FB1233DBB2AE
:10068C00092B94BF30333733DBB2214604F80139E0
:10069C002B46002DEFD1FFF7D0FF0BB030BD002360
:1006AC001A4619464068FFF7ABBE0000014A024BE0
:1006BC001A60704777130A0888000020024B1A68EA
:1006CC00024B1A60704700BF000000208C00002015
:1006DC0010B58368044613B103220146984720469F
:1006EC0010BD10B50446FFF7F3FF204610BD000007
:1006FC00034800238360034A034900F021BC00BF78
:10070C009000002068000020EF060A0808B5144B82
:10071C0033B100F067F903681B699847002816DCB1
:10072C00104B33B100F01CFA03681B699847002882
:10073C0010DC0D4B0BB1AFF300800C4B7BB100F018
:10074C008DF903681B699847002806DC08BDAFF3D8
:10075C000080E5E7AFF30080EBE7AFF3008008BD66
:10076C00000000000000000000000000000000007D
:10077C0008B5FFF7CBFFFFF73DFD014B186008BD37
:10078C00240500200248034A0349121A00F050BD08
:10079C000040024004400240B0150A0807B500238F
:1007AC0000931A466FF07701FFF700FE03B05DF877
:1007BC0004FB000007B543880A2B08D0502B09D145
:1007CC00094B1B683BB103B05DF804EB1847FFF70E
:1007DC00E5FF06E0002300931A466FF07701FFF760
:1007EC00E5FD03B05DF804FBA000002038B5104C0B
:1007FC00104D2368AB42104B0CBF012200221A7023
:10080C0002D0FFF7BFFF2560FFF7ECFC044600F0B9
:10081C0023FD0A4B13B12046AFF30080002107489B
:10082C00FFF72EFEBDE8384000210548FFF7B4BDA8
:10083C00004002401E1C279AA4000020000000006B
:10084C00C1070A08704710B50446182100F086FB52
:10085C00204610BDF8B50F4600F10806051D002412
:10086C0016F8011D0A223846FFF7FAFEAE42044480
:10087C0007D0002CF4D02E213846FFF7EEFE0444AE
:10088C00EEE72046F8BD000010B50446044B1122DB
:10089C0040F8043B002100F0D6FC204610BD00BF00
:1008AC0014140A080346074A10B543F8042B01F147
:1008BC00100251F8044B914243F8044BF9D10A78D9
:1008CC001A7010BD14140A08024A41600260042216
:1008DC000275704714140A0810B59DF8084044EAD4
:1008EC00032343EA024242EA016104234160037597
:1008FC0010BD000037B5044D05609DF818500095EB
:10090C00FFF7EAFF03B030BD14140A0841747047B6
:10091C00704708B50021007CFFF716FD30EA200077
:10092C0028BF4FF0FF3008BD08B50121007CFFF750
:10093C000BFD30EA200028BF4FF0FF3008BD08B592
:10094C00007CFFF7F9FC20EAE07008BD08B5007CDC
:10095C00FFF7EAFC20EAE07008BD007CFFF704BD5D
:10096C0010B50446142100F0F9FA204610BD38B534
:10097C000446007C0D46FFF7DFFC002801DC607CA0
:10098C0028B12946207CFFF7E7FC20EAE07038BD4F
:10099C0010B50446002363604FF47A73A360054BD3
:1009AC00084623600123217463741146FFF7B4FCDD
:1009BC00204610BD28140A0810B504461422002144
:1009CC0000F041FC054B20466360054BE36040F2B0
:1009DC00011323818123238210BD00BF2D01002030
:1009EC00AC00002030B50E4D87B001A8FFF7E4FF36
:1009FC00296811F0010410D12846FFF74AFB60B1B9
:100A0C0001AA21460748FFF7C3FF2846FFF746FB1C
:100A1C00054A0649034800F093FA024807B030BD76
:100A2C00A800002030020020680000201D090A08E0
:100A3C0010B504461422002100F005FC054B20469D
:100A4C006360054BE36040F2011323818123238211
:100A5C0010BD00BFE00200204802002010B50E4C73
:100A6C0086B001A8FFF7E4FF2368DB0710D420460B
:100A7C00FFF70FFB60B101AA01210848FFF788FFBF
:100A8C002046FFF70BFB064A0649044800F058FACB
:100A9C00024806B010BD00BF44020020CC0200206A
:100AAC00680000201D090A0870474174704708B59A
:100ABC00007CFFF7EFFB20EAE07008BD08B5007C76
:100ACC00FFF7C0FB20EAE07008BD08B5007CFFF71B
:100ADC00C9FB30EA200028BF4FF0FF3008BD08B535
:100AEC00007CFFF7B7FB30EA200028BF4FF0FF3047
:100AFC0008BD007CFFF7BEBB10B50446142100F006
:100B0C002DFA204610BD70B5457C04460E4625B91D
:100B1C00007CFFF7BFFB002805DD3146207CBDE8DB
:100B2C007040FFF787BB284670BD000010B5044627
:100B3C0008461146002262604FF47A72A260054AA0
:100B4C0020742260012262741A46FFF76BFB204668
:100B5C0010BD00BF58140A08007CFFF793BB0000BF
:100B6C0038B50C4D296811F0010411D12846FFF756
:100B7C0090FA68B1084A2146084B0948FFF7D6FF9E
:100B8C002846FFF78BFA074A0749054800F0D8F9C1
:100B9C00034838BD7C04002080040020F8030020AA
:100BAC00E403002068000020B50A0A087047F8B575
:100BBC00064615460C468F18BC4206D0336814F80E
:100BCC00011B9B6830469847F6E72846F8BD002283
:100BDC00007CFFF767BB0021007CFFF76BBB00219B
:100BEC00007CFFF76FBB0021007CFFF773BB00217B
:100BFC00007CFFF777BB10B50446142100F0AEF96A
:100C0C00204610BD10B50446002363604FF47A7380
:100C1C00A360044B2174084623601146FFF772FB56
:100C2C00204610BD88140A080021007CFFF762BB27
:100C3C00002211464068FFF7DBBBF0B5164689B0C1
:100C4C0011220F460446002103A800F0FCFA30469E
:100C5C0000F02AFB0025009581B27B6803AA304680
:100C6C00FFF78AFB20B129462046FFF72DFE03E053
:100C7C0003A92046FFF716FE204609B0F0BD00225E
:100C8C0011464068FFF7D4BB002211464068FFF7BD
:100C9C00DFBB00224068FFF7D3BB002281F00101CB
:100CAC004068FFF7BDBB00231A4619464068FFF7A2
:100CBC00AFBB002211464068FFF78ABB002202211D
:100CCC004068FFF78DBB00231A464068FFF778BBDE
:100CDC00024B04225A60024A1A6070470405002035
:100CEC00B0140A0800231A464068FFF769BB0022BB
:100CFC0002214068FFF774BB002211464068FFF7E1
:100D0C0067BB002211464068FFF772BB00231A46EE
:100D1C0019464068FFF774BB00231A461946406811
:100D2C00FFF776BB002281F001014068FFF778BB2A
:100D3C0000224068FFF784BB002211464068FFF791
:100D4C0087BB002211464068FFF772BB70B5164690
:100D5C008EB0044608A8FFF797FD1122002103A8C6
:100D6C0000F071FA304600F09FFA00250A4B00950E
:100D7C0081B25B6803AA3046FFF7FEFA20B1294620
:100D8C002046FFF7A1FD03E003A92046FFF78AFDEB
:100D9C0020460EB070BD00BF04050020024B034A74
:100DAC001A6000225A6070470C050020E4140A08EF
:100DBC0010B50446806808B1FFF72CFA204610BD28
:100DCC0070B51A4E0446316811F001050FD130464A
:100DDC00FFF75FF958B129461548FFF771FB30460C
:100DEC00FFF75CF9134A1449114800F0A9F81048B0
:100DFC00FFF775FB28B1A4F10D03022B01D80020DD
:100E0C0070BD00F077F8FFF70FFF08B1012CF6D991
:100E1C00FFF7A6FEFFF7A0FE18B1A4F11203012BF9
:100E2C00EDD9172C8CBF0020012070BD14050020BB
:100E3C001805002068000020BD0D0A08172838B5D9
:100E4C0004460D460AD8FF2908D0FFF7B9FF28B190
:100E5C0029462046BDE83840FFF79CB938BD38B567
:100E6C0004460D46FFF79EF9FF2810D0062804D83B
:100E7C004D2323FA00F0C30709D42046FFF7A0FF47
:100E8C0028B129462046BDE83840FFF793B938BD54
:100E9C0013B5084C00231A46194600932046FFF759
:100EAC0029FD2046044A054902B0BDE8104000F077
:100EBC0047B800BF280500206800002051080A0828
:100ECC0070B5044614252A46094E002100F0BBF9E2
:100EDC00258020253146A5602561284600F040F884
:100EEC0031466060284600F03BF8E060204670BD5B
:100EFC0010150A0830B50E4D87B0296811F00104A1
:100F0C0013D12846FFF7C5F878B101A8FFF7D8FF31
:100F1C0001AA21460748FFF775FE2846FFF7BEF8E1
:100F2C00054A0649034800F00BF8024807B030BDEB
:100F3C00400500204405002068000020B90B0A0879
:100F4C000B460146184600F065B90000024B1868C4
:100F5C00BFF35F8F704700BF58050020FFF797B8AD
:100F6C0000F000B810B5002814BF04460124204638
:100F7C00FFF78EFA20B9FFF7E9FF08B18047F6E7D3
:100F8C0010BD0000184B1A68D1075CBF01221A6013
:100F9C00164B1A68D2075CBF01221A60144B1A68F0
:100FAC00D0075CBF01221A60124B1A68D1075CBFD4
:100FBC0001221A60104B1A68D2075CBF01221A601A
:100FCC000E4B1A68D0075CBF01221A600C4B1A68D2
:100FDC00D1075CBF01221A600A4B1A68D2075CBFAA
:100FEC0001221A60704700BF7805002074050020AC
:100FFC00700500206C0500206805002064050020A9
:10100C00600500205C050020244B1A68D0075CBFEB
:10101C0001221A60224B1A68D1075CBF01221A60A8
:10102C00204B1A68D2075CBF01221A601E4B1A684B
:10103C00D0075CBF01221A601C4B1A68D1075CBF39
:10104C0001221A601A4B1A68D2075CBF01221A607F
:10105C00184B1A68D0075CBF01221A60164B1A682D
:10106C00D1075CBF01221A60144B1A68D2075CBF0F
:10107C0001221A60124B1A68D0075CBF01221A6059
:10108C00104B1A68D1075CBF01221A600E4B1A680C
:10109C00D2075CBF01221A60704700BFA805002070
:1010AC00A4050020A00500209C0500209805002028
:1010BC0094050020900500208C0500208805002058
:1010CC0084050020800500207C050020244B1A6834
:1010DC00D0075CBF01221A60224B1A68D1075CBF93
:1010EC0001221A60204B1A68D2075CBF01221A60D9
:1010FC001E4B1A68D0075CBF01221A601C4B1A6881
:10110C00D1075CBF01221A601A4B1A68D2075CBF68
:10111C0001221A60184B1A68D0075CBF01221A60B2
:10112C00164B1A68D1075CBF01221A60144B1A685F
:10113C00D2075CBF01221A60124B1A68D0075CBF41
:10114C0001221A60104B1A68D1075CBF01221A6089
:10115C000E4B1A68D2075CBF01221A60704700BFA1
:10116C00D8050020D4050020D0050020CC05002097
:10117C00C8050020C4050020C0050020BC050020C7
:10118C00B8050020B4050020B0050020AC050020F7
:10119C00184B1A68D1075CBF01221A60164B1A68EB
:1011AC00D2075CBF01221A60144B1A68D0075CBFCF
:1011BC0001221A60124B1A68D1075CBF01221A6017
:1011CC00104B1A68D2075CBF01221A600E4B1A68CA
:1011DC00D0075CBF01221A600C4B1A68D1075CBFA8
:1011EC0001221A600A4B1A68D2075CBF01221A60EE
:1011FC00704700BFF8050020F4050020F005002022
:10120C00EC050020E8050020E4050020E0050020A6
:10121C00DC05002010B5054C13462CB10A460146DE
:10122C000220AFF3008010BD204610BD000000006E
:10123C0010B5431E0A44914204D011F8014B03F837
:10124C00014FF8E710BD03460244934202D003F865
:10125C00011BFAE77047000038B5124B05461C68B5
:10126C00A36BD3B91820FFF713F943F20E33A06325
:10127C0003804AF6CD33438041F2342383804EF20F
:10128C006D63C3804DF6EC630381052343810B230F
:10129C00838101220023C0E90423A36B00221D617A
:1012AC005A6138BD64000020034613F8012B002A54
:1012BC00FBD1181A013870471D000A085D000A0896
:1012CC0089000A088D000A08000000004F4E004FEC
:1012DC0046460070756D7053746174757300747547
:1012EC00726E50756D704F6E007475726E50756DB8
:1012FC00704F666600626175640053657269616C5B
:10130C000055534253657269616C31007479706594
:10131C0000706172616D00636D6400696400686ED9
:10132C0064007374726D0066696C74006C766C008A
:10133C0061646448616E646C65720072656D6F7691
:10134C006548616E646C657200656E756D48616EA2
:10135C00646C657273004A534F4E53747265616DC1
:10136C004C6F6748616E646C65720061707000252B
:10137C003031307520005D20002564002C200028C1
:10138C00293A2000205B00636F6465203D20002516
:10139C00690064657461696C73203D20000D0A005E
:1013AC006C6E00666E00636F6465006465746169E1
:1013BC006C006E6F6E6500747261636500696E66B9
:1013CC006F007761726E006572726F720070616E81
:1013DC00696300616C6C005A00252B3033643A252C
:1013EC003032750025592D256D2D25645425483A2C
:1013FC00254D3A2553257A0061736374696D650038
:10140C00000000000000000061080A0851080A08EA
:10141C0053080A0800000000000000001D090A081B
:10142C006D090A087B090A081B060A0859090A08EB
:10143C001F090A0835090A0867090A084B090A082E
:10144C0019090A080000000000000000B50A0A088B
:10145C00050B0A08130B0A081B060A08C90A0A0816
:10146C00EB0A0A08D70A0A08FF0A0A08B70A0A0888
:10147C00BB0A0A080000000000000000B90B0A08B3
:10148C00030C0A08DB0B0A08BB0B0A08E30B0A085F
:10149C00EB0B0A08F30B0A08FB0B0A080000000010
:1014AC0000000000D30C0A08C90C0A08BF0C0A087B
:1014BC003D0C0A08AB060A08B30C0A08A70C0A086C
:1014CC009F0C0A08950C0A088B0C0A08470C0A0892
:1014DC000000000000000000F10C0A08FB0C0A08D8
:1014EC00050D0A080F0D0A08190D0A08250D0A0822
:1014FC00310D0A083D0D0A08450D0A084F0D0A0862
:10150C00590D0A0800000000000000000000000057
:10151C0000000000000000000000000000000000BF
:10152C0000000000000000000000000000000000AF
:10153C00000000000000000000000000000000009F
:10154C00000000000000000000000000000000008F
:10155C00000000000000000000000000000000007F
:10156C0000000000000000004300000061010A08B8
:10157C0011050A08B9060A08C9060A08FD060A0870
:10158C00DD0C0A08A90D0A089D0E0A08910F0A081D
:10159C0015100A08D9100A089D110A08000000004D
:0415AC00000000003B
:0415B0000000000037
:1015B40004140A080000000014150A0834150A0867
:1015C40054150A080000000000000000000000009C
:1015D4000000000074150A0800000000000000006C
:1015E40000000000000000000000000000000000F7
:1015F40000000000000000000000000000000000E7
:1016040000000000000000000000000000000000D6
:081614000000000004000020AA
:10161C00FFFFFFFF00000102030405060708090A8B
:10162C000B0C0D0E0F101112131415161718191A86
:08163C001B1C1D1E1F202800CD
:04164400785634128E
:04000005080A001CC9
:00000001FF
