:02000004080AE8
:1000000000000A08E4100A080000060006000501C6
:080010000402E80500000000F5
:04001800B00D0A0815
:10001C0009480A4908B5884205D0094A824202D0EB
:10002C00121A00F07BFE0748074A0021121A00F052
:10003C0080FE064808BD00BF0000002054100A08CE
:10004C006800002068000020C0050020C0050020CA
:10005C0070B500F051FA074B074C1E46E41AA40881
:10006C000025A54204D056F8253098470135F8E70D
:10007C0070BD00BF14100A0848100A0800F011B82F
:10008C0008B500F00FF8BDE8084000F0F7B900F033
:10009C0013B90078B0FA80F040097047012303705F
:1000AC0070477047704700F003B800F001B80000CB
:1000BC0008B5024B1B681B68019308BDB00106080C
:1000CC0008B5024B1B685B68019308BD9C010608D0
:1000DC0008B5024B1B685B69019308BD9C010608BF
:1000EC0008B5024B1B689B69019308BDC401060847
:1000FC0008B5024B1B685B6A019308BDC401060876
:10010C0008B5024B1B689B6A019308BDC401060825
:10011C0008B5024B1B68DB6A019308BDC4010608D5
:10012C0008B5024B1B681B6B019308BDC401060884
:10013C0008B5024B1B685B6B019308BDC401060834
:10014C0008B5024B1B681B6C019308BDC401060863
:10015C0008B5024B1B681B68019308BDD801060843
:10016C0008B5024B1B681B69019308BDD801060832
:10017C0008B5024B1B685B69019308BDD8010608E2
:10018C0008B5024B1B689B69019308BDD801060892
:10019C0008B5024B1B68DB69019308BDD801060842
:1001AC0008B5024B1B681B6A019308BDD8010608F1
:1001BC0008B5024B1B689B6C019308BDC001060877
:1001CC0008B5024B1B685B68019308BDA4010608C7
:1001DC0008B5034B1B68D3F89030019308BD0000A1
:1001EC00A401060808B5034B1B68D3F89C30019397
:1001FC0008BD0000A401060808B5024B1B685B682B
:10020C00019308BDC801060808B5024B1B689B6822
:10021C00019308BDC801060808B5024B1B68DB68D2
:10022C00019308BDC801060808B5024B1B681B6981
:10023C00019308BDC801060808B5024B1B685B6931
:10024C00019308BDC801060808B5024B1B689B69E1
:10025C00019308BDC801060808B5024B1B68DB6991
:10026C00019308BDC801060808B5024B1B681B6A40
:10027C00019308BDC801060808B5024B1B681B6B2F
:10028C00019308BDC801060808B5024B1B685B6BDF
:10029C00019308BDC801060808B5024B1B68DB6B4F
:1002AC00019308BDCC01060808B5024B1B681B68FE
:1002BC00019308BDA001060808B5024B1B685B68DA
:1002CC00019308BDA001060810B50446006818B1DA
:1002DC00FFF7F2FF0023236010BD10B50446FFF7B3
:1002EC00F3FF204610BD00004FF6FF7310B5084C0D
:1002FC0000202060A080A07120816381FFF760FF47
:10030C002046BDE81040034A034900F0A9BB00BFDA
:10031C006C00002068000020E7020A08F8B50646C9
:10032C000D468F180024BD420CD0336815F8011B04
:10033C009B6830469847002801DB0444F3E7002C07
:10034C0008BF04462046F8BD70B505460C46084665
:10035C0049B100F01FFD2B68024621462846BDE836
:10036C007040DB68184770BD03689B681847012A0A
:10037C0098BF0A2230B50B468BB000218DF82410A3
:10038C000DF12304B3FBF2F505FB1233DBB2092BA1
:10039C0094BF30333733DBB2214604F801392B4696
:1003AC00002DEFD1FFF7D0FF0BB030BD00231A4664
:1003BC0019464068FFF740BF014A024B1A6070476C
:1003CC003A0E0A0878000020024B1A68024B1A6099
:1003DC00704700BF000000207C00002010B583682F
:1003EC00044613B1032201469847204610BD10B5B0
:1003FC000446FFF7F3FF204610BD0000034800231E
:10040C008360034A034900F02BBB00BF800000202F
:10041C0068000020FB030A0808B5144B33B100F048
:10042C0067F903681B699847002816DC104B33B139
:10043C0000F018FA03681B699847002810DC0D4B74
:10044C000BB1AFF300800C4B7BB100F08DF903685E
:10045C001B699847002806DC08BDAFF30080E5E770
:10046C00AFF30080EBE7AFF3008008BD00000000A5
:10047C0000000000000000000000000008B5FFF7BD
:10048C00CBFFFFF725FE014B186008BD04050020CB
:10049C000248034A0349121A00F040BC00400240D3
:1004AC000440024050100A0807B5002300931A4676
:1004BC006FF07701FFF796FE03B05DF804FB0000C8
:1004CC0007B543880A2B08D0502B09D1094B1B6860
:1004DC003BB103B05DF804EB1847FFF7E5FF06E00E
:1004EC00002300931A466FF07701FFF77BFE03B0F1
:1004FC005DF804FB9000002038B5104C104D2368BB
:10050C00AB42104B0CBF012200221A7002D0FFF735
:10051C00BFFF2560FFF7D4FD044600F013FC0A4B27
:10052C0013B12046AFF3008000210748FFF7B4FE5B
:10053C00BDE8384000210548FFF74ABE00400240A4
:10054C001E1C279A9400002000000000CD040A080D
:10055C00704710B50446182100F087FA204610BDEC
:10056C00F8B50F4600F10806051D002416F8011D0C
:10057C000A223846FFF7FBFEAE42044407D0002C9B
:10058C00F4D02E213846FFF7EFFE0444EEE7204668
:10059C00F8BD000010B50446044B112240F8043B92
:1005AC00002100F0C6FB204610BD00BFDC0E0A087F
:1005BC000346074A10B543F8042B01F1100251F819
:1005CC00044B914243F8044BF9D10A781A7010BDD0
:1005DC00DC0E0A08024A4160026004220275704770
:1005EC00DC0E0A0810B59DF8084044EA032343EAE0
:1005FC00024242EA016104234160037510BD000010
:10060C0037B5044D05609DF818500095FFF7EAFFCB
:10061C0003B030BDDC0E0A0841747047704708B552
:10062C000021007CFFF7ACFD30EA200028BF4FF022
:10063C00FF3008BD08B50121007CFFF7A1FD30EAB1
:10064C00200028BF4FF0FF3008BD08B5007CFFF735
:10065C008FFD20EAE07008BD08B5007CFFF780FD37
:10066C0020EAE07008BD007CFFF79ABD10B5044687
:10067C00142100F0FAF9204610BD38B50446007C70
:10068C000D46FFF775FD002801DC607C28B129467A
:10069C00207CFFF77DFD20EAE07038BD10B50446E4
:1006AC00002363604FF47A73A360054B0846236004
:1006BC000123217463741146FFF74AFD204610BDD7
:1006CC00F00E0A0810B504461422002100F031FB8C
:1006DC00054B20466360054BE36040F20113238118
:1006EC008123238210BD00BF1D0100209C0000202F
:1006FC0030B50E4D87B001A8FFF7E4FF296811F063
:10070C00010410D12846FFF7C4FC60B101AA2146B0
:10071C000748FFF7C3FF2846FFF7C0FC054A064908
:10072C00034800F09DF9024807B030BD9800002046
:10073C00200200206800002029060A0810B5044693
:10074C001422002100F0F5FA054B20466360054B9E
:10075C00E36040F2011323818123238210BD00BF8B
:10076C00D00200203802002010B50E4C86B001A833
:10077C00FFF7E4FF2368DB0710D42046FFF789FC62
:10078C0060B101AA01210848FFF788FF2046FFF756
:10079C0085FC064A0649044800F062F9024806B096
:1007AC0010BD00BF34020020BC02002068000020F5
:1007BC0029060A0870474174704708B5007CFFF79A
:1007CC00BFFC20EAE07008BD08B5007CFFF798FC80
:1007DC0020EAE07008BD08B5007CFFF7A1FC30EA08
:1007EC00200028BF4FF0FF3008BD08B5007CFFF794
:1007FC008FFC30EA200028BF4FF0FF3008BD007C92
:10080C00FFF796BC10B50446142100F02EF92046D3
:10081C0010BD70B5457C04460E4625B9007CFFF72B
:10082C008FFC002805DD3146207CBDE87040FFF7C9
:10083C005FBC284670BD000010B504460846114642
:10084C00002262604FF47A72A260054A2074226022
:10085C00012262741A46FFF743FC204610BD00BF0C
:10086C00200F0A0838B50C4D296811F0010411D17C
:10087C002846FFF70EFC68B1084A2146084B094888
:10088C00FFF7DAFF2846FFF709FC074A0749054836
:10089C0000F0E6F8034838BD6C040020700400201A
:1008AC00E8030020D403002068000020C1070A08D8
:1008BC00002211464068FFF7B7BCF0B5164689B068
:1008CC0011220F460446002103A800F032FA3046EC
:1008DC0000F060FA0025009581B27B6803AA3046CF
:1008EC00FFF766FC20B129462046FFF773FE03E0B4
:1008FC0003A92046FFF75CFE204609B0F0BD00229C
:10090C0011464068FFF7B0BC002211464068FFF763
:10091C00BBBC00224068FFF7AFBC002281F0010194
:10092C004068FFF799BC00231A4619464068FFF748
:10093C008BBC002211464068FFF766BC00220221E6
:10094C004068FFF769BC00231A464068FFF754BCA7
:10095C00024B04225A60024A1A607047F4040020C9
:10096C00500F0A0800231A464068FFF745BC0022C6
:10097C0002214068FFF750BC002211464068FFF787
:10098C0043BC002211464068FFF74EBC00231A46B8
:10099C0019464068FFF750BC00231A4619464068B8
:1009AC00FFF752BC002281F001014068FFF754BCF4
:1009BC0000224068FFF760BC002211464068FFF738
:1009CC0063BC002211464068FFF74EBC70B516465A
:1009DC008EB0044608A8FFF7DDFD1122002103A804
:1009EC0000F0A7F9304600F0D5F900250A4B009528
:1009FC0081B25B6803AA3046FFF7DAFB20B12946C7
:100A0C002046FFF7E7FD03E003A92046FFF7D0FDE2
:100A1C0020460EB070BD00BFF4040020024B034A08
:100A2C001A6000225A607047FC040020840F0A08E8
:100A3C0013B5084C00231A46194600932046FFF7BD
:100A4C00DFFD2046044A054902B0BDE8104000F025
:100A5C0007B800BF08050020680000205D050A08E3
:100A6C000B460146184600F04BB9FFF710BB0000CF
:100A7C00184B1A68D1075CBF01221A60164B1A6812
:100A8C00D2075CBF01221A60144B1A68D0075CBFF6
:100A9C0001221A60124B1A68D1075CBF01221A603E
:100AAC00104B1A68D2075CBF01221A600E4B1A68F1
:100ABC00D0075CBF01221A600C4B1A68D1075CBFCF
:100ACC0001221A600A4B1A68D2075CBF01221A6015
:100ADC00704700BF3C05002038050020340500207D
:100AEC00300500202C0500202805002024050020BE
:100AFC0020050020244B1A68D0075CBF01221A6025
:100B0C00224B1A68D1075CBF01221A60204B1A686D
:100B1C00D2075CBF01221A601E4B1A68D0075CBF5B
:100B2C0001221A601C4B1A68D1075CBF01221A60A3
:100B3C001A4B1A68D2075CBF01221A60184B1A684C
:100B4C00D0075CBF01221A60164B1A68D1075CBF34
:100B5C0001221A60144B1A68D2075CBF01221A607A
:100B6C00124B1A68D0075CBF01221A60104B1A682E
:100B7C00D1075CBF01221A600E4B1A68D2075CBF0A
:100B8C0001221A60704700BF6C0500206805002028
:100B9C0064050020600500205C050020580500203D
:100BAC0054050020500500204C050020480500206D
:100BBC004405002040050020244B1A68D0075CBF78
:100BCC0001221A60224B1A68D1075CBF01221A60FD
:100BDC00204B1A68D2075CBF01221A601E4B1A68A0
:100BEC00D0075CBF01221A601C4B1A68D1075CBF8E
:100BFC0001221A601A4B1A68D2075CBF01221A60D4
:100C0C00184B1A68D0075CBF01221A60164B1A6881
:100C1C00D1075CBF01221A60144B1A68D2075CBF63
:100C2C0001221A60124B1A68D0075CBF01221A60AD
:100C3C00104B1A68D1075CBF01221A600E4B1A6860
:100C4C00D2075CBF01221A60704700BF9C050020D0
:100C5C009805002094050020900500208C050020AC
:100C6C008805002084050020800500207C050020DC
:100C7C00780500207405002070050020184B1A68B8
:100C8C00D1075CBF01221A60164B1A68D2075CBFF1
:100C9C0001221A60144B1A68D0075CBF01221A603B
:100CAC00124B1A68D1075CBF01221A60104B1A68EC
:100CBC00D2075CBF01221A600E4B1A68D0075CBFCA
:100CCC0001221A600C4B1A68D1075CBF01221A6012
:100CDC000A4B1A68D2075CBF01221A60704700BF2A
:100CEC00BC050020B8050020B4050020B00500208C
:100CFC00AC050020A8050020A4050020A0050020BC
:100D0C0010B5054C13462CB10A4601460220AFF330
:100D1C00008010BD204610BD0000000010B5431E21
:100D2C000A44914204D011F8014B03F8014FF8E743
:100D3C0010BD03460244934202D003F8011BFAE7AC
:100D4C007047000038B5124B05461C68A36BD3B92D
:100D5C001820FFF7A9FA43F20E33A06303804AF67A
:100D6C00CD33438041F2342383804EF26D63C380D4
:100D7C004DF6EC630381052343810B238381012210
:100D8C000023C0E90423A36B00221D615A6138BD06
:100D9C0064000020034613F8012B002AFBD1181A1B
:100DAC00013870471D000A085D000A0889000A080E
:100DBC008D000A08000000006261756400536572C2
:100DCC0069616C0055534253657269616C310074F2
:100DDC0079706500706172616D00636D64006964A7
:100DEC0000686E64007374726D0066696C74006CDC
:100DFC00766C0061646448616E646C657200726547
:100E0C006D6F766548616E646C657200656E756DAC
:100E1C0048616E646C657273004A534F4E53747222
:100E2C0065616D4C6F6748616E646C6572006170D2
:100E3C007000253031307520005D20002564002CB9
:100E4C00200028293A2000205B00636F6465203D58
:100E5C00200025690064657461696C73203D200075
:100E6C000D0A0066006C6E00666E00636F646500B0
:100E7C0064657461696C006E6F6E65007472616399
:100E8C006500696E666F007761726E006572726FD5
:100E9C00720070616E696300616C6C005A00252BE6
:100EAC003033643A253032750025592D256D2D25AA
:100EBC00645425483A254D3A2553257A00617363CD
:100ECC0074696D6500000000000000000000000067
:100EDC006D050A085D050A085F050A080000000098
:100EEC000000000029060A0879060A0887060A0885
:100EFC0029030A0865060A082B060A0841060A088F
:100F0C0073060A0857060A0825060A08000000009E
:100F1C0000000000C1070A0811080A081F080A0887
:100F2C0029030A08D5070A08F7070A08E3070A087D
:100F3C000B080A08C3070A08C7070A0800000000C4
:100F4C000000000053090A0849090A083F090A0869
:100F5C00BD080A08B9030A0833090A0827090A0850
:100F6C001F090A0815090A080B090A08C7080A0804
:100F7C00000000000000000071090A087B090A0843
:100F8C0085090A088F090A0899090A08A5090A0897
:100F9C00B1090A08BD090A08C5090A08CF090A08D7
:100FAC00D9090A0800000000000000000000000041
:100FBC000000000000000000000000000000000025
:100FCC000000000000000000000000000000000015
:100FDC000000000000000000000000000000000005
:100FEC0000000000000000000000000000000000F5
:100FFC0000000000000000000000000000000000E5
:10100C000000000043000000B3000A08B7000A0803
:10101C00F5020A08C5030A08D5030A0809040A08D8
:10102C005D090A08290A0A083D0A0A087D0A0A0805
:10103C00010B0A08C50B0A08890C0A0800000000FD
:04104C0000000000A0
:04105000000000009C
:10105400C90E0A0800000000B00F0A08D00F0A08E1
:10106400F00F0A080000000000000000000000006B
:101074000000000010100A0800000000000000003A
:10108400000000000000000000000000000000005C
:10109400000000000000000000000000000000004C
:1010A400000000000000000000000000000000003C
:0810B400000000000400002010
:1010BC00FFFFFFFF00000102030405060708090AF1
:1010CC000B0C0D0E0F101112131415161718191AEC
:0810DC001B1C1D1E1F20280033
:0410E40078563412F4
:04000005080A001CC9
:00000001FF
